:020000041000EA
:10000000F2EB8871C41D0010EC1D0010A800001058
:1000100090A31AE7D3DEFFFF420101114403000061
:100020003600001000200820FF04000064210000BA
:10003000793512AB79A8971100109381E1D517217A
:100040000810130121FC170500101305B5177310D4
:100050005530732540F135ED1707000013070705EC
:100060000C4391C55043144731071D28D5BF970550
:1000700000109385E531170600101306665421A081
:1000800023A005009105E39DC5FEEF1040657D208E
:10009000EF1080640290FDBF884108C291051106EF
:1000A000E36CD6FE82800100EC1D001000000020F1
:1000B0008C03002078210010000008200000082098
:1000C0007821001000100820001008200000000017
:1000D000828021651305C5DF02859707001083C75D
:1000E000674385EF930700009DC34111172500006A
:1000F0001305C5B906C697000000E7000000B2402E
:100100008547170700102307F74041018280854784
:10011000170700102300F7408280828093070000B9
:1001200089CF970500109385253F172500001305FB
:10013000E5B517030000670000008280411122C46A
:100140003724001006C6130484C80D2822853120E8
:100150001305803EEF009054D5BF411122C406C65E
:100160002A840345050019C50504EF10407B0345AB
:1001700004007DF9B2402244410182806F10407931
:10018000B78703409107B347F52098438566BE962D
:10019000134707041377070C3786024098C233656C
:1001A000C5200D67BA974CC11307001098C3828011
:1001B00039713723001022CC2A84130543CA06CE96
:1001C0002ED232D436D63AD83EDA42DC46DEEF10B2
:1001D000407F01CC4C1022852EC6EF10C04A372537
:1001E0000010130545CBEF10C07D0545EF10804E84
:1001F000F3760430B70700209387775313973700BF
:100200003317E028F19B2FA8E7443378E800E31C7C
:1002100008FE0F00300393D735003E9503470500D5
:1002200093F77500B317F0283378F70063110802CD
:100230005D8F2300E5000F003003B7070020938790
:10024000C752A3850700A18A73A00630828041119E
:10025000328506C6B13F3707002003450738DD4623
:100260009307150093F7F70F63F3F600C1472300D8
:10027000F7388280B70600209386C652814713065E
:1002800000020F0030033387F600230007008507C4
:10029000E399C7FE828081463D481D459305400392
:1002A00093F736008A073317F80013D62600420763
:1002B000518F733037BEB317F500C207D18F73A0CB
:1002C00037BE8506E39EB6FC736004308280935788
:1002D000550086073315A028C176E98E13871700CD
:1002E0004205558F5D8D91C9733025BE733027BE91
:1002F000732005BE732007BE8280733005BE733045
:1003000007BE8280011106CE73770430B707002044
:100310009387575393963700B316D028F19B2FA697
:10032000D744758E6DFE0F003003F3275030130550
:100330004503F19BB347F52094436380D502B7078B
:10034000002093874736638AF6002EC62AC43AC235
:10035000EF104017B24522451247F3275030F19B6A
:100360003345F5200CC10F0030030F003003B707F1
:1003700000209387C752A3840700218B7320073086
:10038000F24005618280797106D6737E0430B7072A
:10039000002093875753139737003317E028F19BBA
:1003A000AFA6E744F98EEDFE0F003003F32750307F
:1003B000F19B930F4503B3C7FF2003A8070037073E
:1003C0000020930E47366300D80B630EB808370F32
:1003D0000020130F4F133307E8419307F00263E542
:1003E000E70822D493574500F3A707BE9372F500A0
:1003F0003317A02893585500C1839313070186082B
:10040000B3125028B3F2F200B3E3130173B003BE8A
:10041000C1777D8F8508B3E8E80073B008BE0F0090
:100420003003F32750BE1397070101446352071CA2
:10043000C28701439843D44313768700137707801C
:100440001317B74813D5464119E2B306A7006385D1
:10045000D5040387A7003E83B327E720634E071622
:10046000B3C7E721C1BF7688F3275030F19BB3C7EC
:10047000FF2023A007010F0030030F003003B70750
:1004800000209387C752A384070093778E0073A040
:100490000730B250456182800386A7006340061A88
:1004A0003327C6203347E7211443584393F586008A
:1004B00099E593F606809396B648518736976383FD
:1004C0000703931617008565ED8EBA9693F606809E
:1004D0009396B648520793E6760B1367770E94C34C
:1004E0001317F728B326C62033C5E6210343B5000A
:1004F00093952600D8C3A38567008306A5003167BE
:10050000130727E42385D70063CA060A83568500AC
:10051000A105FA9513D51600139736001373050439
:100520001377070233676700138387003307674039
:100530001393160013730308137505301A9713935A
:1005400026002A971373034013D526009D821A971D
:10055000C18A1373E500B3E6660036971313B0281B
:100560002E9733756500098F931617008565ED8EFC
:100570009355370013157700918933756500CD8E3B
:1005800093151700C98E93F5056013552700CD8E7E
:100590001375051093151700C98E93F505081355AB
:1005A0001700CD8E137505049315270033E7A600B9
:1005B00093F68503558FE9768506558FB70500209C
:1005C00003C54559B326C6202394E700B3C7E621E7
:1005D000238AC5582385A700638C020473B023BE09
:1005E00073B028BE73A003BE73A008BE2254ADBD75
:1005F000918393F7F71F13844703E30BF5E22ECEA5
:100600007ECC72CA46C81EC616C442C2EF00906BAA
:10061000B7070020938E4736B70700201248A24242
:10062000B243C248524EE24FF245138F471309B509
:1006300073B003BE73B008BE22543DB51DEC630415
:10064000030A7177130727E4FD562314E3002305FB
:10065000D3003387E741B7B6AAAA9386B6AA09871B
:100660003307D702B706002003C646592385C700C3
:10067000238AE658E38E02FA95B7B706002013875F
:10068000870093860617998E139716000566718F5B
:1006900013D63600118A518F9315B0281396760021
:1006A0006D8E93951600518F93F5056013D6260035
:1006B0004D8F1376061093951600518F93F505080C
:1006C00013D616004D8F137606048A06518F93F6C3
:1006D0008603558F136717001317D7282394E70055
:1006E000E38802F4E5BD7688ADB7F32750BE1397D3
:1006F0000701814563490700918393F7F71F9387AB
:1007000047039395270073760430B707002093873B
:100710005753139737003317E028F19BAFA6E744F0
:10072000F98EEDFE0F003003370700201307471343
:10073000B307E540B7B6AAAA9386B6AA8987B38756
:10074000D70293974760F3265030F19AAE969442C1
:100750006386A6048306A700638CF60483066701FC
:100760006386F606830627026384F6068306E7029D
:100770006382F6063707002083464759230AF75855
:100780002305D5000F003003B70700209387C75219
:10079000A3840700218A732006308280732750309B
:1007A000B7060020719B2E979386463614C3D9B79F
:1007B0008146B3A6D620B3C6E62071777D581307CD
:1007C00027E4238506012394E6006DB78546D5B757
:1007D0008946C5B78D46F1BFB70700209387C7523A
:1007E000AE971CC18280011122CC26CA370400209A
:1007F000B704002006CE130444389384C4386376CB
:1008000094024AC84EC61309F00FFD591C409DC3FF
:100810009934AA852285C937231224010F00300399
:100820002104E36594FE4249B249F2406244D24455
:10083000056182800D34AA852285793F2302340127
:100840000F0030032104E36394FCF1BFB7060020DE
:1008500083A7865973770430139637003316C02860
:10086000F19BAFA5C744F18DEDFD0F00300383A7C9
:1008700086590F003003238007009377870073A009
:10088000073033201000014581458280397106DE32
:1008900022DC26DA4AD84ED652D456D25AD05ECE70
:1008A00062CC66CA6AC8F32750BE13970701634833
:1008B000073213D947009377C91F13793900B31949
:1008C0002029B70B0B406398073437070020B3C7C4
:1008D000272113074757B3C7E72083AA07008D676F
:1008E00093874704DE97371A001023A03701130AB5
:1008F000CA887D54FD54039B8A0023AE3B03635892
:100900000B0883D74A009397576063DD071483C7AA
:100910006A006396071E039B8A0063470B0403A7C4
:100920004A01332B6B21FD57336BEB20032C8B00DB
:10093000032BCB006302FC2AB346792103A78B0269
:100940009C4A3306EC40998F6360F60483A70B0240
:10095000B3D7274995CB5E85EF00207A63C6650142
:10096000E31BBBF8E37985F933201000F2506254A1
:10097000D2544259B259225A925A025BF24B624CFB
:10098000D24C424D2161828023A88601E9B783A71A
:100990004A01332C6B215E85336CFC20832CCC0008
:1009A000032D8C00992FE3CE95F56383BC1C63C5A2
:1009B0000C1C83270C0183254C0163854725039775
:1009C0008A0003552C004207598D82972E87AA87EB
:1009D000B3E6E7006382061A63590720B306FD40B9
:1009E000333DDD00B387EC40B387A74103170C000C
:1009F0002324DC002326FC00E34507F003A84A017A
:100A00003325E72013161700336505214C4583284D
:100A10008500E3C8B7EE6394F500E3E416EF239492
:100A2000EA0013858A0031A0832886004C461316FD
:100A300017003A9663CEB7006383F51E336506212F
:100A4000031705003326E72033660621E35E07FC23
:100A50002310EC002310650183D74A009397576059
:100A6000E3C707EA83A70A01737704309396370038
:100A7000B316D028F19B2FA6D744758E6DFE0F00BC
:100A8000300383D84A00FD572392FA0093985860A8
:100A900083A70A010F0030032380070093778700A4
:100AA00073A00730E3C508E603A54A0103978A004F
:100AB00033A818213368A82093858A00634507026C
:100AC000032388000326C80001A8638BC60E039782
:100AD0000700BE8563490700B327E720B3E7A720D7
:100AE000D447E354D6FE2390150183180800231041
:100AF000E800E3DD08FA83C76A00E38E07E023839A
:100B00000A00039B8A00FD555A87E30FBBE403A547
:100B10004A01B327E7203A86B3E7A72083D6270008
:100B20000397070013888A009396566063C20602F3
:100B30003E88E304B7DEB327E720B3E7A72083D6D8
:100B400027003A860397070093965660E3D206FE85
:100B500080C7C4C7E30FCBFC2310E80083D68A000C
:100B6000328B2390D7002394CA00E316B7FC75B3E9
:100B7000E369A5D9E3DF0CE203570C0083A70A0160
:100B80002394EA007377043093963700B316D02885
:100B9000F19B2FA6D744758E6DFE0F00300383D6D0
:100BA0002A0083A70A012310DC0023916A010F00A9
:100BB0003003238007009377870073A0073091B339
:100BC0009447E376D3F0239015018318080023108F
:100BD000E800E3DD08EC05B7E3108BD7ADBB854932
:100BE000CE870149B78B0B40CDB15E853AC63EC476
:100BF0002923A2473247B306F500B3B7A600BA953A
:100C0000AE97EDB39C492E852EC4829735D5A2456B
:100C10009C41D84175BB8547B78B0B407DB1E3FF45
:100C200016E13DB5B707002093870718984B19C701
:100C30003705002013058559A94579BE41118D4519
:100C400037050B4006C622C4492937040020930704
:100C5000041837080B4023A60701EFF0CFDF9307F6
:100C60000418AA850D452380A700370700D0032369
:100C70000700B7060020D84B9386C65237061100EE
:100C8000AE967D16BD4894CBA380670090C7239194
:100C90001701FD5509439148154699462392B7001F
:100CA00023146704231C17072318C7082314D70A23
:100CB0009D42A146A54F294FAD4E314E3543B9480F
:100CC0000546231CD70C2310A7062310570C231806
:100CD000F70F2314E7112310D713231CC71323186E
:100CE0006714231417172310B7002318C702231CF7
:100CF000070037080B40B71500102320D80237072C
:100D000000209385C5882320F758EFF0AFDF854595
:100D10000D45EFF0CFDB2244B240B7270B40A14690
:100D2000B4C33705002013058559A94541016DB4A9
:100D3000B283AA8710492E83F37504301315360049
:100D40003315A028719A2F28A6443378A800E31CF5
:100D500008FE0F0030038398270013F685008C4BA4
:100D600063CE0808C84B33A818213368A820035560
:100D700008002391A7000F00300323800500732093
:100D80000630035628008545139508012E96460621
:100D900045823376B60A232AE8002328D800232484
:100DA0006800232678002311C800518D984BF376F4
:100DB0000430131637003316C028719BAF25C74483
:100DC000F18DEDFD0F00300303D64700984B231043
:100DD000C800239217010F0030032300070013F708
:100DE00086007320073003C70700DC4789669386B7
:100DF00046043317E028B69798C382800F0030036B
:100E000023800500732006307D5582800357A5009E
:100E100093D7054163D8E7045449B3A7F72018498D
:100E2000B3E7D720F3760430131637003316C02803
:100E3000719B2F28C7443378C800E31C08FE0F00BD
:100E4000300303D62700B3C5050813F78600B34661
:100E50000608630BB6001C490F003003238007000F
:100E600073200730014582806176D18E2391D700AF
:100E700085472303F50014490F0030032380060043
:100E8000732007308346050058450966130646045B
:100E9000B316D02832973E8514C38280011122CC2C
:100EA00026CA4EC6AA8406CE4AC885241307803EA9
:100EB0003384E402B7070080FD17B3B4E402B3093A
:100EC000A40033B48900AE94269463F487003E8472
:100ED000FD599384A9FF33B934019307F4FF3E9978
:100EE000636A2403630689020D243385A440B30595
:100EF000B940B3B7A4009D8D634AB002CDC9A285A5
:100F00006244F240D24442494E85B249056195ACF3
:100F1000E3FC99FCDD2A814401493385A440B305F3
:100F2000B940B3B7A4009D8DE35AB0FCF92A3385CC
:100F3000A44033B5A400B305B940898D63C105024F
:100F4000B7160010370500209386C68413050518D0
:100F50000147A6854A86E93BFD57E302F5FAB70645
:100F60000B4037060020DC5263E727019856E31850
:100F7000F9F8E37697F883278659737704309395C9
:100F80003700B315B028F19B2FA5B7446D8D6DFDCB
:100F90000F003003832786590F003003238007009A
:100FA0009377870073A00730332000006DBF21D9ED
:100FB000B5BFF32750BE13970701635A0706B7075B
:100FC0000020011193870718D84722CC26CA06CEE5
:100FD00083C70700AA843A852E843EC63AC4312AC4
:100FE0002247B247B305B440B3C7E7209C4B3387D1
:100FF000A440B3B6E400958D898F63CD0504A9C9DB
:1010000033200000B7060B40D8528147636B87003E
:101010009C56018F3337E000B3B7970093B71700A2
:10102000D98FF2406244D2443E8505618280B70682
:101030000B40D8528147636BB7009C560D8F3337F6
:10104000E000B3B7A70093B71700D98F3E85828021
:10105000E378F7FA5D283385A44033B5A400B305DF
:10106000B440898D63C70504B7160010B707002088
:101070009386C6840147A6852286138507184D39B5
:101080006359A00237070B405C5363EB8702185784
:101090006394870063669702B7070020AA851385CB
:1010A0000718AD33B7060B40D8528147E36B87F67C
:1010B00085B737070B405C5363F78700814795B7C7
:1010C00033200000D1BF1857818FB337F00033377A
:1010D000970013371700D98FA9B7B787F4BFAA971E
:1010E0003705002093B717001305C55937260010A0
:1010F0003E95130686CB6FF0AF8F4C51AA87885769
:101100002E87CC53E31DB7FE8280B7070B40CC532C
:1011100088572E87CC53E39DE5FE828037070B402E
:101120005C5303288702BE865C53E39CD7FE3306DC
:101130000501BE953335A6002E95636CF5026388D4
:10114000A702B7070B40DC5363F7A70037070B4034
:101150005C53E3EFA7FE639BA70037070B4021A07A
:1011600054536395F6001457E3ECC6FE8280E37A8D
:1011700006FDB7070B40DC537D552A86E398A7FC94
:10118000E9BF37070B405C53E3EFB7FE639BF50005
:10119000B7070B4021A0D8536395E5009857E36C3F
:1011A000A7FE8280011122CC2A84194526CA06CEC8
:1011B000AE84FD2A51CDB787074037070004630D81
:1011C000F40EB727024098C3B7060240B737024073
:1011D00098C3A1069C42B377F740EDFFB787F8BFED
:1011E000A2971387C18093B71700B3A7E7201945CB
:1011F000130700102390E700652A93173500B3D733
:101200009702850713D7770029EB930400048546DE
:1012100054D018D4185893771700ADE38567938797
:10122000C702A297545423A0070018D819453EC4FA
:1012300041220A05335595025854A247130610302F
:10124000134707071377E70798C38D4610D834C4B0
:10125000F2406244D2440561828041667916C166DB
:10126000637FE604FD16014754D018D41858B7041C
:101270004000938404FC93771700CDD38D67938748
:101280000703A2979306103094C35C501454194579
:101290009A07B6973AC63EC4212AB7862B8F938603
:1012A00056B73335D502A2478145AA072D8133D5DC
:1012B000A702AD3532479DB73707000819B78583B8
:1012C0009316670093F7F703B384F600BA863E8758
:1012D00081B70000B70701403327A5203347F72027
:1012E00003284700C1676373F8005CC39387F5FF69
:1012F0009308C5FF81E793B72800B5E737080020BA
:101300001308C854B347052103A307008D67BA9794
:10131000131EB02823A0C7010A0563190302032383
:10132000070016068567334666001376060EBA97E1
:1013300090C30546637016078967BA971316B028DD
:1013400090C34295C16714C15CC382808327480162
:10135000B3D767028507B3A7F72001009387E7FF9C
:10136000E3DE07FE6DBF8D67BA970D4823A0070126
:101370001C47858BF5DF0328070016068567334673
:1013800006011376060EBA97370800200A0590C3A7
:101390001308C854832807003316B028B3C81501B2
:1013A00093F8380023A017011C47F18FF5DF69B7C8
:1013B000B70700209387C7543345F5200841828042
:1013C000B727B700938707B0B3D7B70283280500C4
:1013D000C206320733E8E6003356F60263C4080457
:1013E000B787054011676300F506B727024098C329
:1013F000B7060240B737024098C3A1069C42B377B4
:10140000F740EDFF0D670CC1110710C52A97930730
:1014100010021CC31C41E3DF07FE23260501A14780
:101420001CC382801C4193F7F703E39BB7FA1C456A
:10143000D207D183E396C7FA5C4537770700F98F67
:10144000E39007FB828021674DB7B78710403325B3
:10145000A5203345F5204CC185471CC18280A1677A
:101460009387A7DF83D7070085458287B7170E408C
:101470009387878298437DDF0F0030038280B71700
:101480000E4037170E409387C7801307C7820F009F
:10149000300323A007009107E39BE7FE8280856766
:1014A000938707AA378704401CC39307A0115CC722
:1014B000B7B6FA00B7A7044094C35C43E3DF07FE66
:1014C000828082803725001041111305C5CD06C6E4
:1014D000EFE01FCE411122C426C237240010B724EA
:1014E000001006C61304C4C4938444C863779400F0
:1014F0001C4011048297E36D94FEB2402244924452
:1015000041018280B747EFEF9387F7B7B7260240D4
:101510003707F4039CC25917B7370240B706024099
:1015200098C3A1069C42B377F740EDFF8280B707CE
:101530001150F847A1676303F7008280B727115065
:1015400037070400F8C78280370700207D17B737B8
:101550000240B706024098C3A1069C42B377F74009
:10156000EDFF8280156541111305352506C6C53D81
:10157000B240AA87114541018287156541111305C3
:10158000352506C6E93DB240AA8705454101828757
:101590006FE05FCE411122C406C626C24AC037049E
:1015A000014023220408E53DB73701400547D8DF55
:1015B0007C40E39FE7FE0D47B737014098DB0544C9
:1015C000370701401C5FE39F87FE37366859A285C5
:1015D000130606F00947954637050540D5331547EC
:1015E00037968647BA86A285130606C0378505401A
:1015F000C13BB726B700938606B001468945114521
:10160000D139B7D6F008A28593860618014615454C
:10161000D131B776DC02938606C00146814521456B
:101620005539B776DC02938606C0014681452545CB
:101630005531B7D6F00893860618014681451945FD
:101640005139B7D6F00893860618014681451D45E5
:1016500051311145B13BB7E71B43938737E8B334AA
:10166000F50201441949C9802285A6850504F13B8C
:10167000E31C24FFB240224492440249410182808B
:1016800011E1828069AC83A70181011106CE91CF5F
:10169000AA86371500102E87130505686C007D5645
:1016A0008297F240054505618280212EF240014576
:1016B000056182800D45731025BE7D15E35D05FE35
:1016C0000565130505807310453073600430731091
:1016D000003482800290FDBF411106C6E53F4111F2
:1016E00022C426C237240010B7240010130444C8B3
:1016F000938484C806C6F93B637794001C401104A8
:101700008297E36D94FEB24022449244410182806C
:101710001C412E85B28582878347550101114AC835
:1017200006CE2E89C1C76354C00622CC26CA83C701
:1017300005003284AA84D91781E783474501A1CFE8
:10174000854701466304F40293061900854703C7E1
:1017500006003E888507591709E703C7F6FF4D17AE
:1017600029EF8506E315F4FE635886009C40B30517
:10177000C4403305C9008297B305890083C7F5FFCC
:101780006244CD1793B71700238AF400D244F24085
:101790004249056182801C4137250010130505DB95
:1017A000894582970546E311C4FAF9B71C41F24016
:1017B0004A854249B28505618287B305C840330531
:1017C000C90063580601984036C63EC40297B24627
:1017D000A247984037250010130505DB894536C61A
:1017E0003EC40297A247B2463E86A5BF397122DCAD
:1017F00026DA4AD856D206DEB28A4ED652D45ECE09
:10180000AE842A893684EFF05F90B7470F00938744
:101810000724AA9733B6A700370700802E967D17B6
:10182000BE856374C7003A86FD55370A002013054C
:101830004A3897F0FF0FE780E085FD57AA8B638158
:10184000F40A39C4B71900109389897103A48181FE
:101850001DC063940A0429A0638C8700004801CC52
:101860001C402686CA852285F5DB83A74181EDF7DA
:101870008299004875F4639E0B04F25062544259F9
:10188000B259225A925AF24B2685D2542161828053
:10189000B71900109389097155BF5AD0294B29A057
:1018A000638C870000481DC01C402686CA8522859F
:1018B000F5DB83A74181EDF7829922859305F1003D
:1018C0000546A30761018299004879FC025BE38623
:1018D0000BFA13054A3897F0FF0FE780408271BF7B
:1018E0004A851126AA84B1BF83A78181138781818C
:1018F00099C76389A700138707019C4BFDFB91C122
:1019000008C38280FDFD944B14C323A80700828086
:10191000411106C6B52CB24005454101828079715E
:101920004AD006D622D44ECE52CC2A89A307A10093
:10193000EFF0AFFDB7470F0093870724AA9733B6A0
:10194000A700370700802E967D17BE856374C700F9
:101950003A86FD55B70900201385493897E0FF0FF7
:10196000E780407303A481812A8A05C426D229A076
:10197000630DF400004809CC1C4005469305F100B6
:101980002285EDDB83A74181E5F7793300486DF4CB
:101990009254631A0A00B2502254F249624A4A85AC
:1019A0000259456182801385493897E0FF0FE7802F
:1019B0000075B2502254F249624A4A850259456183
:1019C0008280411106C622C426C22A84292CAA84F8
:1019D00085462285A6853686113D03A4818111C4E2
:1019E0005C4091CB8297004865FCB240224426853A
:1019F000924441018280004865F4B2402244268529
:101A0000924441018280635EB00203A74182B7879E
:101A1000F8BFBA9793B717009386C180B3A7D720B2
:101A2000039807003306B500B54583460500630BF0
:101A3000D8001C4F93F70702EDFF14C30505E3160A
:101A4000C5FE82801C4F93F70702EDFF0CC3D5B78C
:101A500003A801826353B00603A7418281461C4F4D
:101A6000C18B85EF85061C4FC18BF5FF1043B30773
:101A7000D500A38FC7FEE394D5FE630D080093073E
:101A800000051CDF5C5B85669386460393F787033E
:101A900036971CC3AE8636858280630D0800930797
:101AA00000051CDF5C5B05661306460393F787039E
:101AB00032971CC3EDF2F556F9BFE30E08FE83A77B
:101AC000418213070005856698DFD85B938646033D
:101AD000B6971377870398C3F55675BF83A701821E
:101AE00081CB03A7418203A5C181232C07028287F2
:101AF000828003A741821C4FA18BF5FF828003A740
:101B00004182B787074001112A863305F740133514
:101B1000150006CE2E881305150283A5018209C67D
:101B20008DC9F24005618280EDDD232C07028145DD
:101B30002AC6EFE0CFF93245B72500109385C5AD31
:101B4000EFE07F84F24023A0018223AE0180056193
:101B50008280B72500109385C5AD2AC623A0C18217
:101B600023AE0181EFE00FFA32458545EFE02FF615
:101B700083A7418213070005856698DFD85BF24092
:101B800093864603B6971377870398C305618280CF
:101B9000B727001083C787DE4111B727001083C71E
:101BA00047DE22C4B727001083C707DEB707074008
:101BB0008945014506C623A2F182EFE06FDC894525
:101BC0000545EFE0EFDB03A54182F1659385052034
:101BD000EFF04FDD2244B240370500201305853673
:101BE0008545410111B3937735002A879DEFB7866C
:101BF0007F7F9386F6F7FD5510431107B377D60024
:101C0000B697D18FD58FE389B7FE8346C7FFB30759
:101C1000A7408DCA8346D7FF9DC20345E7FF3335F2
:101C2000A0003E9579158280F9D283470700050709
:101C300093763700F5FB098F1305F7FF8280138534
:101C4000D7FF82801385C7FF8280000064150010D3
:101C5000041500102E1500109415001048150010E2
:101C60007E140010901500106C140010E607001090
:101C7000240C0010C21400107A150010B4160010C5
:081C8000960200101C01001087
:101C880048454C4C4F2046524F4D204E41544956E2
:101C98004520555342210D0A000000000A2A2A2A2D
:101CA8002050414E4943202A2A2A0A000A000000EF
:101CB800486172647761726520616C61726D20257C
:101CC8006420616C726561647920636C61696D651B
:101CD8006400000048617264206173736572740067
:101CE80052656C6561736500626F6F74325F77323D
:101CF8003571303830000000322E322E30000000AE
:101D08007069636F320000006F735F656C66000076
:101D18004A756E20203120323032360055415254F7
:101D280020737464696E00005541525420737464C2
:101D38006F7574005541525420737464696E202F76
:101D4800207374646F75740006005250D3F07542A6
:101D5800E81C001006005250E182887FF01C001039
:101D680006005250ABB36053001D001006005250DD
:101D7800BBFF3CB6081D001006005250861C03022B
:101D8800101D0010060052505422A29D181D00106C
:101D980005005250DE65F4688C2100100600525090
:101DA80053B4F4A13C1D00100D0A00000800525065
:0C1DB800120000000800525092100000C1
:101DC400501D00105C1D0010681D0010741D0010D3
:101DD400801D00108C1D0010981D0010BC1D0010EB
:081DE400B41D0010A41D001045
:101DEC00B70700D09C43011122CC26CA4AC84EC664
:101DFC0006CEBE842A842E89B28931A80F00300306
:101E0C002300070073A007304A85CE85971000F099
:101E1C00E78060F831E51C40737704309396370007
:101E2C00B316D028F19B2FA6D744758E6DFE0F00EC
:101E3C00300383064400937787001840E3D006FCF8
:101E4C00230294000F0030032300070073A0073017
:101E5C00F2406244D2444249B24905450561828050
:101E6C00F2406244D2444249B24901450561828044
:101E7C001C417377043093963700B316D028F19B2E
:101E8C002FA8D7443378D800E31C08FE0F0030038A
:101E9C008306450093778700184163C206020F0042
:101EAC0030032300070073A00730B70700D0038767
:101EBC00070081476314D7003E85828015B7B706AB
:101ECC0000D094422302D5000F00300323000700FA
:101EDC0073A0073085473E8582801C4173770430A0
:101EEC0093963700B316D028F19B2FA6D744758E46
:101EFC006DFE0F003003FD572302F5001C410F004F
:101F0C00300323800700218B73200730332010000F
:101F1C0082800000000000000000000000000100B2
:101F2C0000000000000000000000020000000000A3
:101F3C000000000000000300000000000000000092
:101F4C000000FF0042B89380420083A2020082820C
:101F5C00138560FF970000F0E780605742BE0000D9
:101F6C000000000000000000000000000000000065
:101F7C0000000000900300200000000000000000A2
:101F8C000000000000000000000000000000000045
:101F9C000000000000000000000000000000000035
:101FAC006F00001A00000000000000006F006019B4
:101FBC000000000000000000000000006F0040184E
:101FCC000000000000000000000000005D7106C071
:101FDC0016C21AC41EC62AC82ECA32CC36CE3AD065
:101FEC003ED242D446D672D876DA7ADC7EDE7325BF
:101FFC001034F3250030AAC0AEC2736651BEB2C411
:10200C0073E540BE6341050273600430B7050020E0
:10201C00AA9583A50529E78005007370043073E544
:10202C0040BEE35305FE064596452646731015340F
:10203C0073900530731056BE824092422243B243D5
:10204C00D2456246F246025792572258B258425E27
:10205C00D25E625FF25F732540BEE35005FA4245E3
:10206C0061617300203000000000000000000000DF
:10207C006403002064030020640300206403002038
:10208C006403002064030020640300206403002028
:10209C006403002064030020640300206403002018
:1020AC006403002064030020640300206403002008
:1020BC0064030020640300206403002064030020F8
:1020CC0064030020640300206403002064030020E8
:1020DC0064030020640300206403002064030020D8
:1020EC0064030020640300206403002064030020C8
:1020FC0064030020640300206403002064030020B8
:10210C0064030020640300206403002064030020A7
:10211C006403002064030020640300206403002097
:10212C006403002064030020640300206403002087
:10213C006403002064030020640300206403002077
:10214C000290029009810290061A0010F21A0010F7
:10215C00501A0010FE1A00100000000000010000D0
:0C216C0010000000000000000000000057
:10217800D3DEFFFFFE010000FF0100009CDEFFFF31
:04218800793512ABE8
:0400000510000034B3
:00000001FF
